:040000008A110B282E
:10000800FE00030EF1000A08F2008A115E298A1127
:100018000D28F701F801F901FA0183120313A5016C
:10002800A601A70183018A1119288A1194218A112E
:100038008A1183218A118312051E2B287908031D32
:100048002B280130A3002308A707F901F90A051A8C
:1000580031287903031D3128F901C8307A02031CBD
:100068003A280130A3002308A607FA012608031935
:100078001F28FA010630A3002308F30027088A1175
:1000880072218A11A4002408F700C9307A020318E3
:10009800D02804308312031385000A30A3002308F4
:1000A800F30077088A111A218A11A4002408F8009D
:1000B8007808A300A4012308F3002408F4008A1197
:1000C800D6208A11823083120313A400DD30A300E6
:1000D800A30B6C28A40B6C28023083120313850031
:1000E80078087702A3002308F8000A30A300230841
:1000F800F30078088A113D218A11A4002408F80029
:100108007808A3002308A5000A30A3002308F300F9
:1001180078088A111A218A11A4002408F80078089E
:10012800A300A4012308F3002408F4008A11D620B0
:100138008A11823083120313A400DD30A300A30BBD
:10014800A328A40BA3280130831203138500780881
:100158002502A3002308F8000A30A3002308F300AF
:1001680078088A113D218A11A4002408F80078082B
:10017800A300A4012308F3002408F4008A11D62060
:100188008A11823083120313A400DD30A300A30B6D
:10019800CB28A40BCB28492883120313A701FA0103
:1001A800A6011F28F4284030860008007930860010
:1001B8000800243086000800303086000800193016
:1001C8008600080012308600080002308600080009
:1001D8007830860008008601080010308600080084
:1001E8007408003A0319F92819297308003A031901
:1001F800D728013A0319DA28033A0319DD28013A06
:100208000319E028073A0319E328013A0319E628F5
:10021800033A0319E928013A0319EC280F3A03199C
:10022800EF28013A0319F12819290800A00008301D
:10023800F4007408A100A2012008F400073003109C
:10024800F40CFF3E031D23292208F50075077404EA
:10025800F6007608A2000310A00D73082202031C02
:1002680037297308A2020130A102031D20292208A0
:100278000800A000A201730803195C29A101A10AC2
:10028800F31B4D290310F30D0130F4007408A10786
:1002980044290310A20D73082002031C5729730870
:1002A800A00222140310F30C0130A102031D4D29F2
:1002B80022080800831203130C1C6B293C308F00A2
:1002C800AF308E000130F0007008FA070C10720889
:1002D8008A00710E8300FE0E7E0E0900F600F501FD
:1002E800761C7A297308F4007408F5070310F30DD7
:1002F8000310F60C7608031D742975080800831688
:100308009B01B0308500803086000F178F160F12C2
:1003180083121014901083160C140B178B170800F7
:020328000800CB
:04400E0078FFFFFF39
:00000001FF
